{
  "contractName": "Dice",
  "abi": [
    {
      "inputs": [],
      "payable": false,
      "stateMutability": "nonpayable",
      "type": "constructor"
    },
    {
      "payable": true,
      "stateMutability": "payable",
      "type": "fallback"
    },
    {
      "anonymous": false,
      "inputs": [
        {
          "indexed": false,
          "name": "bidder",
          "type": "address"
        },
        {
          "indexed": false,
          "name": "betWon",
          "type": "bool"
        },
        {
          "indexed": false,
          "name": "rollResult",
          "type": "uint256"
        }
      ],
      "name": "GameResult",
      "type": "event"
    },
    {
      "constant": false,
      "inputs": [
        {
          "name": "isBetEven",
          "type": "bool"
        }
      ],
      "name": "betAndRoll",
      "outputs": [],
      "payable": false,
      "stateMutability": "nonpayable",
      "type": "function"
    }
  ],
  "bytecode": "0x608060405234801561001057600080fd5b50600a600181905550610338806100286000396000f3fe60806040526004361061003b576000357c010000000000000000000000000000000000000000000000000000000090048063a726f0e91461003d575b005b34801561004957600080fd5b506100786004803603602081101561006057600080fd5b8101908080351515906020019092919050505061007a565b005b6100826102d9565b6000803373ffffffffffffffffffffffffffffffffffffffff1673ffffffffffffffffffffffffffffffffffffffff168152602001908152602001600020600001819055506000803373ffffffffffffffffffffffffffffffffffffffff1673ffffffffffffffffffffffffffffffffffffffff168152602001908152602001600020600001546001600082825401925050819055506000809050600060026000803373ffffffffffffffffffffffffffffffffffffffff1673ffffffffffffffffffffffffffffffffffffffff1681526020019081526020016000206000015481151561016c57fe5b06149050811515811515146000803373ffffffffffffffffffffffffffffffffffffffff1673ffffffffffffffffffffffffffffffffffffffff16815260200190815260200160002060010160006101000a81548160ff0219169083151502179055507f917ed633130aae9351fcee877554607b5d2fa7a5c78c8f8c194b653d362aae22336000803373ffffffffffffffffffffffffffffffffffffffff1673ffffffffffffffffffffffffffffffffffffffff16815260200190815260200160002060010160009054906101000a900460ff166000803373ffffffffffffffffffffffffffffffffffffffff1673ffffffffffffffffffffffffffffffffffffffff16815260200190815260200160002060000154604051808473ffffffffffffffffffffffffffffffffffffffff1673ffffffffffffffffffffffffffffffffffffffff16815260200183151515158152602001828152602001935050505060405180910390a15050565b600080446001430301406001900490506001548101905060006002600b8381151561030057fe5b0601905080925050509056fea165627a7a72305820b63e63ae70d247831d675860ce01a7a358b7680372891df5d1b425b264b38b9e0029",
  "source": "pragma solidity ^0.5.3;\n\ncontract Dice{\n\n\tstruct Bet{\n\t\tuint256 rollResult;\n\t\tbool betWon;\n\t}\n\n\tmapping(address => Bet) private bets;\n\n\tuint256 private randomFactor; // Variable for randomizing results\n\n\tevent GameResult(address bidder, bool betWon , uint256 rollResult); // Event for tracking the game results\n\n\tconstructor() public{\n\t\trandomFactor = 10;\n\t}\n\n\t// This function rolls the dice and emits the result\n\tfunction betAndRoll  (bool isBetEven) public {\n\t\tbets[msg.sender].rollResult = random();\n\t\trandomFactor += bets[msg.sender].rollResult; // Set a new random factor for next roll\n\n\t\t// Check if the result is even\n\t\tbool isResultEven = false;\n\t\tisResultEven = bets[msg.sender].rollResult % 2 == 0;\n\n\t\t// Check if we won\n\t\tbets[msg.sender].betWon = isResultEven == isBetEven;\n\t\t// if (bets[msg.sender].betWon){\n\t\t// \tmsg.sender.transfer(100000000000000);\n\t\t// }\n\t\temit GameResult(msg.sender, bets[msg.sender].betWon, bets[msg.sender].rollResult);\n\t}\n\n\t// Function for getting a new random number between 2 and 12\n    function random() private view returns (uint256) {\n       \tuint256 blockValue = uint256(blockhash(block.number-1 + block.difficulty));\n        blockValue = blockValue + uint256(randomFactor);\n        uint256 result = (blockValue % 11) + 2;\n\t\treturn result;\n    }\n\n\t// Fallback function in case contract is called, but no other function is called or no data is sent\n    function() external payable{}\n\n}",
  "sourcePath": "C:/Dice/contracts/Dice.sol",
  "compiler": {
    "name": "solc",
    "version": "0.5.3+commit.10d17f24.Emscripten.clang"
  },
  "schemaVersion": "3.0.14",
  "updatedAt": "2019-09-15T14:28:46.796Z",
  "devdoc": {
    "methods": {}
  },
  "userdoc": {
    "methods": {}
  }
}