{
  "contractName": "Dice",
  "abi": [
    {
      "inputs": [],
      "payable": false,
      "stateMutability": "nonpayable",
      "type": "constructor"
    },
    {
      "payable": true,
      "stateMutability": "payable",
      "type": "fallback"
    },
    {
      "anonymous": false,
      "inputs": [
        {
          "indexed": false,
          "name": "bidder",
          "type": "address"
        },
        {
          "indexed": false,
          "name": "currentBet",
          "type": "bool"
        },
        {
          "indexed": false,
          "name": "rollResult",
          "type": "uint256"
        }
      ],
      "name": "GameResult",
      "type": "event"
    },
    {
      "constant": false,
      "inputs": [
        {
          "name": "isBetEven",
          "type": "bool"
        }
      ],
      "name": "betAndRoll",
      "outputs": [],
      "payable": false,
      "stateMutability": "nonpayable",
      "type": "function"
    }
  ],
  "bytecode": "0x608060405234801561001057600080fd5b50600a600181905550610411806100286000396000f3fe60806040526004361061001e5760003560e01c8063a726f0e914610020575b005b34801561002c57600080fd5b5061005b6004803603602081101561004357600080fd5b8101908080351515906020019092919050505061005d565b005b806000803373ffffffffffffffffffffffffffffffffffffffff1673ffffffffffffffffffffffffffffffffffffffff16815260200190815260200160002060000160006101000a81548160ff0219169083151502179055506100be6103b5565b6000803373ffffffffffffffffffffffffffffffffffffffff1673ffffffffffffffffffffffffffffffffffffffff168152602001908152602001600020600101819055506000803373ffffffffffffffffffffffffffffffffffffffff1673ffffffffffffffffffffffffffffffffffffffff168152602001908152602001600020600101546001600082825401925050819055506000809050600060026000803373ffffffffffffffffffffffffffffffffffffffff1673ffffffffffffffffffffffffffffffffffffffff16815260200190815260200160002060010154816101a657fe5b06149050811515811515146000803373ffffffffffffffffffffffffffffffffffffffff1673ffffffffffffffffffffffffffffffffffffffff16815260200190815260200160002060020160006101000a81548160ff0219169083151502179055506000803373ffffffffffffffffffffffffffffffffffffffff1673ffffffffffffffffffffffffffffffffffffffff16815260200190815260200160002060020160009054906101000a900460ff16156102ab573373ffffffffffffffffffffffffffffffffffffffff166108fc655af3107a40009081150290604051600060405180830381858888f193505050501580156102a9573d6000803e3d6000fd5b505b7f917ed633130aae9351fcee877554607b5d2fa7a5c78c8f8c194b653d362aae22336000803373ffffffffffffffffffffffffffffffffffffffff1673ffffffffffffffffffffffffffffffffffffffff16815260200190815260200160002060020160009054906101000a900460ff166000803373ffffffffffffffffffffffffffffffffffffffff1673ffffffffffffffffffffffffffffffffffffffff16815260200190815260200160002060010154604051808473ffffffffffffffffffffffffffffffffffffffff1673ffffffffffffffffffffffffffffffffffffffff16815260200183151515158152602001828152602001935050505060405180910390a15050565b6000804260014303014060001c90506001548101905060006001600583816103d957fe5b0601905080925050509056fea165627a7a723058202cf7c105b6108ba4be02c0bc2b7472a1539ccb795516ac096b182d03af97fe810029",
  "source": "pragma solidity ^0.5.3;\n\ncontract Dice{\n\n\tstruct Bet{ //struktura Oklade\n\t\tbool  currentBet; //trenutačna oklada\n\t\tuint256 rollResult;\n\t\tbool betWon;\n\t}\n\n\tmapping(address => Bet) private bets; // praćenje oklada igrača\n\n\tuint256 private randomFactor; // randomiziranje rezultata\n\n\tevent GameResult(address bidder, bool currentBet , uint256 rollResult); // event koji služi za praćenje stanja rezultata\n\n\tconstructor() public{ // konstruktor sa randomizacijom rezultata postavljenom na neki broj\n\t\trandomFactor = 10;\n\t}\n\n\tfunction betAndRoll  (bool isBetEven) public {\n\t\tbets[msg.sender].currentBet = isBetEven;\n\t\tbets[msg.sender].rollResult = random();\n\t\trandomFactor += bets[msg.sender].rollResult;\n\n\t\t// Check if the result is even\n\t\tbool isResultEven = false;\n\t\tisResultEven = bets[msg.sender].rollResult % 2 == 0;\n\n\t\t// Check if we won\n\t\tbets[msg.sender].betWon = isResultEven == isBetEven;\n\t\tif (bets[msg.sender].betWon){\n\t\t\tmsg.sender.transfer(100000000000000);\n\t\t}\n\t\temit GameResult(msg.sender, bets[msg.sender].betWon, bets[msg.sender].rollResult);\n\t}\n\n    function random() private view returns (uint256) { // funkcija za dobivanje nasumičnog broja\n       \tuint256 blockValue = uint256(blockhash(block.number-1 + block.timestamp));\n        blockValue = blockValue + uint256(randomFactor);\n        uint256 result = (blockValue % 5) + 1; // ovdje trebamo dobivati brojeve od 2 do 12 HINT: bolckValue % 11 + 2\n\t\t//randomFactor += result;\n\t\treturn result;\n    }\n\n    function() external payable{} // fallback funkcija koja se poziva ukoliko je contract pozvan, ali nije pozvana ni jedna druga funkcija ili nisu poslani nikakvi podaci\n\t\n\n}",
  "sourcePath": "C:/Dice/contracts/Dice.sol",
  "compiler": {
    "name": "solc",
    "version": "0.5.8+commit.23d335f2.Emscripten.clang"
  },
  "schemaVersion": "3.0.14",
  "updatedAt": "2019-09-14T09:34:22.558Z",
  "devdoc": {
    "methods": {}
  },
  "userdoc": {
    "methods": {}
  }
}